{
  "_format": "hh-sol-artifact-1",
  "contractName": "CoffeeCupa",
  "sourceName": "contracts/Coffee-Cupa.sol",
  "abi": [
    {
      "inputs": [
        {
          "internalType": "address",
          "name": "_stablecoinAddress",
          "type": "address"
        }
      ],
      "stateMutability": "nonpayable",
      "type": "constructor"
    },
    {
      "anonymous": false,
      "inputs": [
        {
          "indexed": true,
          "internalType": "address",
          "name": "from",
          "type": "address"
        },
        {
          "indexed": false,
          "internalType": "uint256",
          "name": "timestamp",
          "type": "uint256"
        },
        {
          "indexed": false,
          "internalType": "string",
          "name": "name",
          "type": "string"
        },
        {
          "indexed": false,
          "internalType": "string",
          "name": "message",
          "type": "string"
        },
        {
          "indexed": false,
          "internalType": "uint256",
          "name": "quantity",
          "type": "uint256"
        }
      ],
      "name": "NewCoffee",
      "type": "event"
    },
    {
      "inputs": [
        {
          "internalType": "string",
          "name": "_name",
          "type": "string"
        },
        {
          "internalType": "string",
          "name": "_message",
          "type": "string"
        },
        {
          "internalType": "uint256",
          "name": "_quantity",
          "type": "uint256"
        }
      ],
      "name": "buyCoffee",
      "outputs": [],
      "stateMutability": "nonpayable",
      "type": "function"
    },
    {
      "inputs": [],
      "name": "coffeePrice",
      "outputs": [
        {
          "internalType": "uint256",
          "name": "",
          "type": "uint256"
        }
      ],
      "stateMutability": "view",
      "type": "function"
    },
    {
      "inputs": [],
      "name": "getCoffees",
      "outputs": [
        {
          "components": [
            {
              "internalType": "address",
              "name": "from",
              "type": "address"
            },
            {
              "internalType": "uint256",
              "name": "timestamp",
              "type": "uint256"
            },
            {
              "internalType": "string",
              "name": "name",
              "type": "string"
            },
            {
              "internalType": "string",
              "name": "message",
              "type": "string"
            },
            {
              "internalType": "uint256",
              "name": "quantity",
              "type": "uint256"
            }
          ],
          "internalType": "struct CoffeeCupa.Coffee[]",
          "name": "",
          "type": "tuple[]"
        }
      ],
      "stateMutability": "view",
      "type": "function"
    },
    {
      "inputs": [],
      "name": "owner",
      "outputs": [
        {
          "internalType": "address payable",
          "name": "",
          "type": "address"
        }
      ],
      "stateMutability": "view",
      "type": "function"
    },
    {
      "inputs": [],
      "name": "stablecoin",
      "outputs": [
        {
          "internalType": "contract IERC20",
          "name": "",
          "type": "address"
        }
      ],
      "stateMutability": "view",
      "type": "function"
    },
    {
      "inputs": [
        {
          "internalType": "address",
          "name": "newOwner",
          "type": "address"
        }
      ],
      "name": "transferOwnership",
      "outputs": [],
      "stateMutability": "nonpayable",
      "type": "function"
    },
    {
      "inputs": [],
      "name": "withdrawTips",
      "outputs": [],
      "stateMutability": "nonpayable",
      "type": "function"
    }
  ],
  "bytecode": "0x6080604052674563918244f4000060035534801561001c57600080fd5b50604051610c37380380610c3783398101604081905261003b9161006e565b60018054336001600160a01b031991821617909155600280549091166001600160a01b039290921691909117905561009e565b60006020828403121561008057600080fd5b81516001600160a01b038116811461009757600080fd5b9392505050565b610b8a806100ad6000396000f3fe608060405234801561001057600080fd5b506004361061007d5760003560e01c80635b0c306d1161005b5780635b0c306d146100bb5780638da5cb5b146100d0578063e9cbd822146100fb578063f2fde38b1461010e57600080fd5b80631c8a4038146100825780633aaa74b21461009e578063441315c5146100a8575b600080fd5b61008b60035481565b6040519081526020015b60405180910390f35b6100a6610121565b005b6100a66100b63660046107d3565b6102a2565b6100c361050e565b6040516100959190610886565b6001546100e3906001600160a01b031681565b6040516001600160a01b039091168152602001610095565b6002546100e3906001600160a01b031681565b6100a661011c366004610938565b6106bb565b6001546001600160a01b031633146101795760405162461bcd60e51b81526020600482015260166024820152752737ba103a34329031b7b73a3930b1ba1037bbb732b960511b60448201526064015b60405180910390fd5b6002546040516370a0823160e01b81523060048201526000916001600160a01b0316906370a0823190602401602060405180830381865afa1580156101c2573d6000803e3d6000fd5b505050506040513d601f19601f820116820180604052508101906101e69190610968565b60025460015460405163a9059cbb60e01b81526001600160a01b03918216600482015260248101849052929350169063a9059cbb906044016020604051808303816000875af115801561023d573d6000803e3d6000fd5b505050506040513d601f19601f820116820180604052508101906102619190610981565b61029f5760405162461bcd60e51b815260206004820152600f60248201526e151c985b9cd9995c8819985a5b1959608a1b6044820152606401610170565b50565b600081116102fd5760405162461bcd60e51b815260206004820152602260248201527f5175616e74697479206d7573742062652067726561746572207468616e207a65604482015261726f60f01b6064820152608401610170565b60008160035461030d91906109a3565b6002546040516323b872dd60e01b8152336004820152306024820152604481018390529192506001600160a01b0316906323b872dd906064016020604051808303816000875af1158015610365573d6000803e3d6000fd5b505050506040513d601f19601f820116820180604052508101906103899190610981565b6103c75760405162461bcd60e51b815260206004820152600f60248201526e151c985b9cd9995c8819985a5b1959608a1b6044820152606401610170565b6040805160a081018252338152426020820190815291810186815260608201869052608082018590526000805460018101825590805282517f290decd9548b62a8d60345a988386fc84ba6bc95484008f6362f93160ef3e563600590920291820180546001600160a01b0319166001600160a01b0390921691909117815593517f290decd9548b62a8d60345a988386fc84ba6bc95484008f6362f93160ef3e56482015590519192917f290decd9548b62a8d60345a988386fc84ba6bc95484008f6362f93160ef3e5659091019061049f9082610a57565b50606082015160038201906104b49082610a57565b50608082015181600401555050336001600160a01b03167f0b977a663808728b1d9d73abc7d6c74f3c354f5c726e6812e767b783e14d1983428686866040516105009493929190610b17565b60405180910390a250505050565b60606000805480602002602001604051908101604052809291908181526020016000905b828210156106b25760008481526020908190206040805160a0810182526005860290920180546001600160a01b0316835260018101549383019390935260028301805492939291840191610585906109ce565b80601f01602080910402602001604051908101604052809291908181526020018280546105b1906109ce565b80156105fe5780601f106105d3576101008083540402835291602001916105fe565b820191906000526020600020905b8154815290600101906020018083116105e157829003601f168201915b50505050508152602001600382018054610617906109ce565b80601f0160208091040260200160405190810160405280929190818152602001828054610643906109ce565b80156106905780601f1061066557610100808354040283529160200191610690565b820191906000526020600020905b81548152906001019060200180831161067357829003601f168201915b5050505050815260200160048201548152505081526020019060010190610532565b50505050905090565b6001546001600160a01b0316331461070e5760405162461bcd60e51b81526020600482015260166024820152752737ba103a34329031b7b73a3930b1ba1037bbb732b960511b6044820152606401610170565b600180546001600160a01b0319166001600160a01b0392909216919091179055565b634e487b7160e01b600052604160045260246000fd5b600082601f83011261075757600080fd5b813567ffffffffffffffff8082111561077257610772610730565b604051601f8301601f19908116603f0116810190828211818310171561079a5761079a610730565b816040528381528660208588010111156107b357600080fd5b836020870160208301376000602085830101528094505050505092915050565b6000806000606084860312156107e857600080fd5b833567ffffffffffffffff8082111561080057600080fd5b61080c87838801610746565b9450602086013591508082111561082257600080fd5b5061082f86828701610746565b925050604084013590509250925092565b6000815180845260005b818110156108665760208185018101518683018201520161084a565b506000602082860101526020601f19601f83011685010191505092915050565b60006020808301818452808551808352604092508286019150828160051b87010184880160005b8381101561092a57888303603f19018552815180516001600160a01b0316845287810151888501528681015160a0888601819052906108ee82870182610840565b915050606080830151868303828801526109088382610840565b60809485015197909401969096525050948701949250908601906001016108ad565b509098975050505050505050565b60006020828403121561094a57600080fd5b81356001600160a01b038116811461096157600080fd5b9392505050565b60006020828403121561097a57600080fd5b5051919050565b60006020828403121561099357600080fd5b8151801515811461096157600080fd5b80820281158282048414176109c857634e487b7160e01b600052601160045260246000fd5b92915050565b600181811c908216806109e257607f821691505b602082108103610a0257634e487b7160e01b600052602260045260246000fd5b50919050565b601f821115610a5257600081815260208120601f850160051c81016020861015610a2f5750805b601f850160051c820191505b81811015610a4e57828155600101610a3b565b5050505b505050565b815167ffffffffffffffff811115610a7157610a71610730565b610a8581610a7f84546109ce565b84610a08565b602080601f831160018114610aba5760008415610aa25750858301515b600019600386901b1c1916600185901b178555610a4e565b600085815260208120601f198616915b82811015610ae957888601518255948401946001909101908401610aca565b5085821015610b075787850151600019600388901b60f8161c191681555b5050505050600190811b01905550565b848152608060208201526000610b306080830186610840565b8281036040840152610b428186610840565b9150508260608301529594505050505056fea2646970667358221220fa83558ca8bb012761641c57ee2d99b40681fe8749e7ad10ff632255d65f81f164736f6c63430008110033",
  "linkReferences": {},
  "deployedLinkReferences": {}
}